:100000000C9408310C9439310C9439310C943931F9
:100010000C9439310C94A5950C9439310C943931E8
:100020000C9439990C9439310D9462600C943931E7
:100030000C9439310D94C27E0C9439310C943931C1
:100040000C9439310C940BF00C9439310C943931F7
:100050000C9439310C9439310D9484540D9468808A
:100060000C9439310D9447650C9439310C94393125
:100070000C9439310C9439310C9439310C94393158
:100080000C9439310C9439310C9439310C94393148
:100090000D9403650C9439310C9439310C94393139
:1000A0000C9439310C9439310C9439310C94393128
:1000B0000C9439310C9439310C9439310C94393118
:1000C0000C9439310C9439310C9439310D94D26738
:1000D0000C9439310C9439310C9439310C943931F8
:1000E0000C943931B4CBCACBDCCBE9CBF3CB21CCEC
:1000F00042CC48CC56CC59CC5BCC65CC76CC87CCAA
:100100008AEA91EA44EA13EAE4E9ECECB6EA94EB11
:1001100034EC96EC40019C019A01C601FA01F00111
:1001200092016A0176015001B001BA0128018801EB
:10013000EC018C01CC014A01D4010802BC0142014E
:1001400002023201460156015C0100028601D8011B
:100150002E01A001F4014601AE01CA010A025801B4
:100160007E0190018401780164014801C801D60133
:10017000F601B4014C013C013A0164015E01F20157
:100180000602084AD73B3BCE016E84BCBFFDC12F9F
:100190003D6C74319ABD56833DDA3D00C77F11BE78
:1001A000D9E4BB4C3E916BAAAABE000000803F057B
:1001B000A84CCDB2D44EB93836A9020C50B99186AC
:1001C00088083CA6AAAA2ABE000000803F07634216
:1001D00036B79BD8A71A39685618AEBAAB558C1DDE
:1001E0003CB7CC5763BD6DEDFD753EF6177231BF60
:1001F000000000803F08000000BE922449123EAB80
:10020000AAAA2ABECDCCCC4C3E00000080BEABAA30
:10021000AAAA3E00000000BF000000803F000000CE
:100220000000084178D3BB4387D1133D190E3CC36E
:10023000BD4282AD2B3E68EC8276BED98FE1A93EED
:100240004C80EFFFBE01C4FF7F3F000000000000B4
:100250000D941D5F0D94A2010D9496270D94877D3A
:100260000D9426030D94647D0D9483770D94E77CA3
:100270000D945E200D94F37F0D94E97F0D9476A983
:100280000D94CF4B0D945A7D0D947F480D94A27D13
:100290000D94AC7F0D949F5F0D94DA7F0D942477BD
:1002A0000D94364C0D94907C0D94AE1E0D946F7D84
:1002B0000D94847F0D94831F0D94737D0D94FD7FA9
:1002C0000D94AD7C0D942F230D941B800D9488000C
:1002D0000D9446000D941E4C0D9465280D944BAA68
:1002E0000D94CE440D94CA7C0D94AA7A0D942A4C98
:1002F0000D94A27F0D94047D0D9405260D94897FA5
:100300000D94557C0D94A41E0D94987F0D947D7DC5
:100310000D94235F0D94D27D0D94455F0D94692457
:100320000D948E7F0D94124C0D9497280D942E34BD
:100330000D94467C0D94E04B0D94DB4B0D94C876E8
:100340000D948B7D0D94C87D0D94CE7D0D94274525
:100350000D94D77D0D943E250D94011E0D94957D31
:100360000D944A4C0D94D5200D94D07F0D94AD780A
:100370000D9438230D94195F0D946B7D0D94DE64FC
:100380000D94217D0D94B63C0D94C5640D94F04BF5
:100390000D94B47F0D94997D0D94625F0D94307B24
:1003A0000D94BE7B0D947B7B0D94D45F0D94BC7F2C
:1003B0000D94817D0D941D230D9431000D94EB7BE4
:1003C0000D94F6760D948A470D94EB030D947E47B9
:1003D0000D947E910D94737C0D942C5F0D94357C5F
:1003E0000D940D4C0D9407800D948F7D0D94C67F58
:1003F0000D9426230D94084C0D94D2780D943578E5
:100400000D94797D0D945E7D0D94881E0D94118060
:100410000D94687D0D949D7D6E616E00696E660021
:100420004E414E494E495459494E46CDCCCC3D0AD9
:10043000D7233C17B7D13877CC2B329595E6241FBC
:10044000B14F0A000020410000C84200401C462075
:10045000BCBE4CCA1B0E5AAEC59D7400407A10F348
:100460005A00A0724E18090010A5D4E80000E876E2
:1004700048170000E40B54020000CA9A3B00000039
:10048000E1F505000080969800000040420F000052
:1004900000A08601000000102700000000E8030013
:1004A0000000006400000000000A000000000001DD
:1004B00000000000002C76D888DC674F0823DFC1DD
:1004C000DFAE59E1B1B796E5E3E453C63AE6519998
:1004D0007696E8E6C28426EB898C9B62ED407C6FC1
:1004E000FCEFBC9C9F40F2BAA56FA5F490055A2A78
:1004F000F75C936B6CF9676DC11BFCE0E40D47FE84
:10050000F520E6B500D0ED902E0300943577050078
:1005100080841E080000204E0A000000C80C3333FF
:1005200033330F986E12831141EF8D2114893BE60E
:100530005516CFFEE6DB18D1844B381BF77C1D9097
:100540001DA4BBE424203284725E228100C9F12400
:10055000ECA1E53D276364696E6F70737578585B35
:1005600000256420627974657320777269747465FC
:100570006E20746F20454550524F4D2061742061AC
:1005800064647265737320307825303478004433A6
:10059000202D20526561642F57726974652045458E
:1005A00050524F4D0A0020436F756E7420583A2008
:1005B000005344207072696E74696E6720627974AA
:1005C0006520004E6F7420696E206661726D206D2B
:1005D0006F64652E00416374697665204578747296
:1005E000756465723A2000496E76616C69642065B5
:1005F00078747275646572005A204F66667365740C
:1006000000556E6B6E6F776E20636F6D6D616E64FB
:100610003A2022004D32303020496E76616C696498
:1006200020657874727564657220007A5F6D6178F8
:100630003A20007A5F6D696E3A2000795F6D6178CB
:100640003A2000795F6D696E3A2000785F6D6178BD
:100650003A20006F70656E00545249474745524535
:100660004400785F6D696E3A20005265706F727455
:10067000696E6720656E6473746F70207374617443
:100680007573000053494C454E54004E4F524D4136
:100690004C002553204D4F44453A20506572636508
:1006A0006E7420646F6E653A2025643B2070726919
:1006B0006E742074696D652072656D61696E696E16
:1006C0006720696E206D696E733A2025640A0045C3
:1006D0006E642066696C65206C697374004265679E
:1006E000696E2066696C65206C6973740025643AD4
:1006F0002025640A000A50494E44412074656D70FB
:10070000657261747572653A20252E3166205A2013
:10071000736869667420286D6D293A20252E33662A
:10072000000A537465703A2025642F360A000A5374
:100730007465703A2025642F362028736B697070B9
:100740006564290A50494E44412074656D70657294
:1007500061747572653A202564205A207368696651
:100760007420286D6D293A300A000A5A45524F3AD2
:1007700020252E33660A0073746172742074656DCF
:1007800070657261747572653A20252E31660A00B3
:1007900025642020252E326600255320583A202536
:1007A0002E356620593A20252E3566205A3A2025C6
:1007B0002E35660A00536C6565702E2E2E004E6F26
:1007C0007420696E206661726D206D6F64652E0005
:1007D00025640045303A25642052504D0A50524E4F
:1007E000303A25642052504D0A002564004175744A
:1007F0006F0020452F443D00416476616E636520A3
:100800004B3D004D32323020532569002553466957
:100810006C616D656E742073657474696E67733A8C
:100820002044697361626C65640A00255346696CF3
:10083000616D656E742073657474696E67733A0ACE
:1008400025532020204D3230302044252E32660A98
:10085000002553526574726163743A20533D4C65B0
:100860006E67746820286D6D2920463A537065655F
:100870006420286D6D2F6D29205A3A205A4C6966E4
:100880007420286D6D290A25532020204D323037E1
:100890002053252E32662046252E3266205A252EDC
:1008A00032660A25535265636F7665723A20533D6E
:1008B0004578747261206C656E67746820286D6D70
:1008C0002920463A537065656420286D6D2F6D2987
:1008D0000A25532020204D3230382053252E3266F1
:1008E0002046252E32660A25534175746F2D5265B8
:1008F00074726163743A20533D3020746F206469D0
:100900007361626C652C203120746F20696E746590
:10091000727072657420657874727564652D6F6E7F
:100920006C79206D6F7665732061732072657472C7
:1009300061637473206F72207265636F766572698C
:1009400065730A25532020204D3230392053256409
:100950000A0025535049442068656174626564202B
:1009600073657474696E67733A0A25532020204DAD
:100970003330342050252E32662049252E32662011
:1009800044252E32660A002553504944207365746D
:1009900074696E67733A0A25532020204D33303135
:1009A0002050252E32662049252E32662044252EE1
:1009B00032660A0025535374657073207065722087
:1009C000756E69743A0A255320204D393220582516
:1009D0002E32662059252E3266205A252E32662068
:1009E00045252E32660A25534D6178696D756D2057
:1009F000666565647261746573202D206E6F726D1B
:100A0000616C20286D6D2F73293A0A255320204DE3
:100A10003230332058252E32662059252E3266205A
:100A20005A252E32662045252E32660A25534D6101
:100A300078696D756D206665656472617465732093
:100A40002D20737465616C746820286D6D2F732977
:100A50003A0A255320204D3230332058252E326655
:100A60002059252E3266205A252E32662045252E05
:100A700032660A25534D6178696D756D2061636337
:100A8000656C65726174696F6E202D206E6F726D7A
:100A9000616C20286D6D2F7332293A0A255320206E
:100AA0004D3230312058256C752059256C75205AEF
:100AB000256C752045256C750A25534D6178696D47
:100AC000756D20616363656C65726174696F6E201A
:100AD0002D20737465616C746820286D6D2F7332DE
:100AE000293A0A255320204D3230312058256C7583
:100AF0002059256C75205A256C752045256C750A82
:100B00002553416363656C65726174696F6E3A2049
:100B1000533D616363656C65726174696F6E2C200F
:100B2000543D7265747261637420616363656C65C2
:100B3000726174696F6E0A255320204D3230342063
:100B400053252E32662054252E32660A25534164E1
:100B500076616E636564207661726961626C65734B
:100B60003A20533D4D696E20666565647261746517
:100B700020286D6D2F73292C20543D4D696E2074F3
:100B8000726176656C2066656564726174652028A3
:100B90006D6D2F73292C20423D6D696E696D756DE9
:100BA000207365676D656E742074696D6520286DAE
:100BB00073292C20583D6D6178696D756D205859E9
:100BC000206A65726B20286D6D2F73292C20205AA6
:100BD0003D6D6178696D756D205A206A65726B2074
:100BE000286D6D2F73292C2020453D6D6178696D2E
:100BF000756D2045206A65726B20286D6D2F7329F5
:100C00000A255320204D3230352053252E326620C0
:100C100054252E32662042252E32662058252E324B
:100C2000662059252E3266205A252E32662045250B
:100C30002E32660A2553486F6D65206F66667365B0
:100C40007420286D6D293A0A255320204D32303604
:100C50002058252E32662059252E3266205A252E00
:100C600032660A004625642025640A004D4D552051
:100C70003C3D2027462564202564270A005049442E
:100C8000204175746F74756E652066696E6973684E
:100C90006564212050757420746865206C617374DC
:100CA000204B702C204B6920616E64204B642063C4
:100CB0006F6E7374616E74732066726F6D20616203
:100CC0006F766520696E746F20436F6E6669677515
:100CD000726174696F6E2E680050494420417574CA
:100CE0006F74756E65206661696C65642120746936
:100CF0006D656F75740020403A00543A00423A0026
:100D0000504944204175746F74756E652066616941
:100D10006C6564212054656D7065726174757265CF
:100D200020746F6F206869676800204B643A200068
:100D3000204B693A2000204B703A200020436C6120
:100D4000737369632050494420002054753A200091
:100D5000204B753A2000206D61783A2000206D69A3
:100D60006E3A200020643A200020626961733A20C4
:100D70000020453A00205A3A0020593A0020453ACE
:100D800000205A3A0020593A00583A00005A3000E0
:100D90005A3100593000593100583000583100455F
:100DA0006E642073746F70732064696167002E0035
:100DB00044656C6574696F6E206661696C65642C4E
:100DC0002046696C653A200046696C652064656C54
:100DD000657465643A004E6F7420534420707269E4
:100DE0006E74696E67005072696E74207361766507
:100DF00064005344207072696E742070617573656D
:100E000064000A002F000A002F2F20616374696FAD
:100E10006E3A63616E63656C0043524153485F43B1
:100E2000414E43454C0043524153485F5245434F66
:100E30005645520043524153485F5245434F564531
:100E4000520022283229005400496E76616C696490
:100E5000205420636F64652E00556E6B6E6F776E45
:100E6000204D20636F64653A202573200A006E6F61
:100E70002076616C696420636F6D6D616E64002C17
:100E800020002C20002C20006E2F61002C20002C34
:100E900020002C20006E2F61002F00503A00576177
:100EA000697420666F722050494E4441207461720B
:100EB0006765742074656D70657261747572653AEA
:100EC000004C414E472053454C20464F5243454429
:100ED00000222831290030303030303030302D3091
:100EE0003030302D303030302D303030302D30300B
:100EF00030303030303030303030002055554944BB
:100F00003A0031002045585452554445525F434FF2
:100F1000554E543A005072757361206933204D4B21
:100F20003300204D414348494E455F545950453A9E
:100F300000312E3000206261736564206F6E204D99
:100F400061726C696E204649524D574152455F555A
:100F5000524C3A68747470733A2F2F6769746875CD
:100F6000622E636F6D2F707275736133642F5072D0
:100F70007573612D4669726D776172652050524FAD
:100F8000544F434F4C5F56455253494F4E3A0046DB
:100F900049524D574152455F4E414D453A50727549
:100FA00073612D4669726D7761726520004D313134
:100FB0003320530020423A0020453A00543A0020A2
:100FC000413A0020503A002042403A0020403A0086
:100FD000202F003A00205400202F0020423A002009
:100FE0002F006F6B20543A002569206D696E2C200C
:100FF00025692073656300496E76616C6964204DD4
:1010000020636F64653A202573200A00556E6B6E6D
:101010006F776E204720636F64653A202573200A3E
:10102000004D65736820626564206C6576656C6947
:101030006E67206E6F74206163746976652E000A96
:10104000002020000A4D6561737572656420706F21
:10105000696E74733A000A5A20736561726368207E
:101060006865696768743A20002C004E756D2058D9
:101070002C593A2000206D6963726F6E73004578B9
:101080006365737369766520626564206C65766557
:101090006C696E6720636F7272656374696F6E3A14
:1010A00020004732382057300050494E44412070CC
:1010B000726F62652063616C6962726174696F6EE0
:1010C00020737461727400473238205730004D32FB
:1010D00034005345545F43484F505F005345545FBD
:1010E000535445505F005345545F574156455F0088
:1010F000544D435F0043524153485F005072657343
:1011000073206B6E6F6220746F207072656865610A
:1011100074206E6F7A7A6C6520616E6420636F6EE6
:1011200074696E75652E00506C6561736520707210
:1011300065737320746865206B6E6F6220746F2016
:10114000756E6C6F61642066696C616D656E7400AC
:1011500052656D6F7665206F6C642066696C616D99
:10116000656E7420616E642070726573732074689C
:1011700065206B6E6F6220746F20737461727420CF
:101180006C6F6164696E67206E65772066696C615B
:101190006D656E742E00616E6420707265737320CD
:1011A000746865206B6E6F6200496E73657274209F
:1011B00066696C616D656E7400436F6C6F72206E52
:1011C0006F7420636F72726563740046696C616D41
:1011D000656E74206E6F74206C6F6164656400438B
:1011E00068616E67656420636F72726563746C79A1
:1011F0003F004C6F6164696E6720636F6C6F7200B3
:101200004368616E6765207375636365737321005E
:10121000506C65617365206F70656E2069646C65E4
:101220007220616E642072656D6F76652066696CF0
:10123000616D656E74206D616E75616C6C792E00E8
:101240005761732066696C616D656E7420756E6C94
:101250006F6164207375636365737366756C3F00BB
:10126000506C6561736520757067726164652E00EE
:101270004E6577206669726D77617265207665725A
:1012800073696F6E20617661696C61626C653A00AA
:1012900057616974696E6720666F722050494E44C9
:1012A000412070726F626520636F6F6C696E6700BA
:1012B00043726173682064657465637465642E208D
:1012C000526573756D65207072696E743F0043726C
:1012D0006173682064657465637465642E00457885
:1012E0007472756465720043686F6F73652065780A
:1012F0007472756465723A0043686F6F7365206637
:10130000696C616D656E743A004E6F206D6F766525
:101310002E005761697420666F7220757365722E96
:101320002E2E00536F6D652070726F626C656D209C
:10133000656E636F756E74657265642C205A2D6CD2
:101340006576656C696E6720656E666F726365644D
:10135000202E2E2E00537461626C6520616D6269CF
:10136000656E742074656D70657261747572652048
:1013700032312D323643206973206E6565646564B1
:101380002061207269676964207374616E642069EA
:10139000732072657175697265642E00506C6561A9
:1013A00073652072756E2058595A2063616C6962AA
:1013B000726174696F6E2066697273742E00737443
:1013C0006172740A006164635F696E69740A000087
:1013D000202D20496E76616C696420657874727581
:1013E000646572206E756D6265722021001B5B3230
:1013F0004A1B5B313B31484F726967696E616C20F3
:1014000050727573612069331B5B323B33485072F5
:10141000757361205265736561726368004661632C
:10142000746F7279205245534554004665622020FE
:1014300036203230313900436F6D70696C65643A23
:101440002000286E6F6E652C2064656661756C7473
:1014500020636F6E6669672900466562202036202A
:10146000323031392031393A30333A343200203396
:101470002E352E312D313737380A002055706C6FDC
:10148000616420696E2070726F67726573730020EB
:101490005A3A0020593A0020583A004352415348E2
:1014A0005F444554454354454458590043524153C1
:1014B000485F4445544543544544590043524153C1
:1014C000485F444554454354454458004D32390023
:1014D0005072757361206933204D4B332072656102
:1014E00064792E00426C61636B6F7574206F636367
:1014F00075727265642E205265636F766572207016
:1015000072696E743F0053656C66746573742077FE
:10151000696C6C2062652072756E20746F20636147
:101520006C69627261746520616363757261746570
:101530002073656E736F726C657373207265686F6C
:101540006D696E672E00546865726520697320733B
:1015500074696C6C2061206E65656420746F206D09
:10156000616B65205A2063616C6962726174696F96
:101570006E2E20506C6561736520666F6C6C6F77A2
:1015800020746865206D616E75616C2C20636861E4
:101590007074657220466972737420737465707319
:1015A0002C2073656374696F6E2043616C6962728D
:1015B0006174696F6E20666C6F772E005072696E71
:1015C00074657220686173206E6F74206265656E49
:1015D0002063616C69627261746564207965742E40
:1015E00020506C6561736520666F6C6C6F7720743A
:1015F0006865206D616E75616C2C20636861707424
:1016000065722046697273742073746570732C2040
:1016100073656374696F6E2043616C696272617493
:10162000696F6E20666C6F772E004F6C6420736557
:101630007474696E677320666F756E642E204465DE
:101640006661756C74205049442C20457374657034
:1016500073206574632E2077696C6C20626520733B
:1016600065742E005761726E696E673A20626F74FE
:1016700068207072696E746572207479706520617B
:101680006E64206D6F74686572626F61726420743D
:10169000797065206368616E6765642E00576172BA
:1016A0006E696E673A207072696E74657220747923
:1016B0007065206368616E6765642E005761726EA5
:1016C000696E673A206D6F74686572626F617264EB
:1016D0002074797065206368616E6765642E0045CB
:1016E000787465726E616C2053504920666C61732A
:1016F0006820573235583230434C206E6F74207258
:101700006573706F6E64696E672E004372617368F3
:101710004465746563742044495341424C45440018
:10172000437261736844657465637420454E414239
:101730004C454421002020506C616E6E65724275EC
:101740006666657242797465733A20002046726558
:1017500065204D656D6F72793A2000207C204175BF
:1017600074686F723A2000204C6173742055706465
:10177000617465643A200020536F66747761726506
:1017800020526573657400205761746368646F67E5
:10179000205265736574002042726F776E206F75FA
:1017A00074205265736574002045787465726E61AB
:1017B0006C20526573657400506F776572557000C8
:1017C0006572726F722077726974696E6720746FC8
:1017D0002066696C6500656E6473746F7073206851
:1017E00069743A2000446F6E6520736176696E6794
:1017F0002066696C652E006F6B007C3C3E5E2B3D65
:101800003F2F5B5D3B2C2A225C0022206661696CC5
:1018100065643A204275666665722066756C6C2157
:10182000002200256920686F757273202569206D7C
:10183000696E757465730054494D454F55543A00AF
:101840004D3131300046756C6C205258204275661F
:1018500066657200656E717565696E672022004469
:101860006F6E65207072696E74696E672066696C50
:1018700065005072696E7465722073746F70706564
:10188000642064756520746F206572726F72732EA8
:101890002046697820746865206572726F722061D5
:1018A0006E6420757365204D39393920746F20724C
:1018B0006573746172742E202854656D7065726151
:1018C000747572652069732072657365742E205378
:1018D0006574206974206166746572207265737422
:1018E000617274696E6729004E6F204C696E6520C5
:1018F0004E756D62657220776974682063686563F0
:101900006B73756D2C204C617374204C696E653A55
:1019100020004E6F20436865636B73756D20776997
:101920007468206C696E65206E756D6265722C201E
:101930004C617374204C696E653A2000636865637E
:101940006B73756D206D69736D617463682C204CC9
:10195000617374204C696E653A20004C696E652095
:101960004E756D626572206973206E6F74204C61D4
:101970007374204C696E65204E756D6265722B31F3
:101980002C204C617374204C696E653A20005354CE
:101990004F505045442E200058595A2063616C69BD
:1019A00062726174696F6E20616C6C207269676825
:1019B000742E20536B65772077696C6C20626520EC
:1019C000636F72726563746564206175746F6D61B5
:1019D000746963616C6C792E0058595A2063616C8C
:1019E0006962726174696F6E20616C6C20726967E4
:1019F00068742E20582F59206178657320617265B4
:101A000020736C696768746C7920736B65776564A3
:101A10002E20476F6F64206A6F62210058595A2048
:101A200063616C6962726174696F6E206F6B2E20E6
:101A3000582F592061786573206172652070657236
:101A400070656E646963756C61722E20436F6E679A
:101A5000726174756C6174696F6E73210058595AA4
:101A60002063616C6962726174696F6E206661697E
:101A70006C65642E2052696768742066726F6E749C
:101A80002063616C6962726174696F6E20706F6946
:101A90006E74206E6F7420726561636861626C653C
:101AA0002E0058595A2063616C6962726174696FC3
:101AB0006E206661696C65642E2046726F6E7420BC
:101AC00063616C6962726174696F6E20706F696EB8
:101AD0007473206E6F7420726561636861626C65F7
:101AE0002E0058595A2063616C6962726174696F83
:101AF0006E206661696C65642E20506C656173654B
:101B000020636F6E73756C7420746865206D616EF0
:101B100075616C2E0058595A2063616C696272615C
:101B200074696F6E20636F6D70726F6D6973656439
:101B30002E2052696768742066726F6E742063612C
:101B40006C6962726174696F6E20706F696E742067
:101B50006E6F7420726561636861626C652E0058F7
:101B6000595A2063616C6962726174696F6E206397
:101B70006F6D70726F6D697365642E2046726F6E43
:101B8000742063616C6962726174696F6E20706F3A
:101B9000696E7473206E6F74207265616368616230
:101BA0006C652E0058595A2063616C6962726174C9
:101BB000696F6E206661696C65642E2042656420E1
:101BC00063616C6962726174696F6E20706F696EB7
:101BD0007420776173206E6F7420666F756E642E4B
:101BE00000506C6561736520706C6163652073746F
:101BF00065656C207368656574206F6E206865612B
:101C0000746265642E0044697374616E636520625A
:101C100065747765656E20746970206F66207468DE
:101C200065206E6F7A7A6C6520616E6420746865D9
:101C300020626564207375726661636520686173F4
:101C4000206E6F74206265656E20736574207965FF
:101C5000742E20506C6561736520666F6C6C6F77B5
:101C600020746865206D616E75616C2C20636861FD
:101C70007074657220466972737420737465707332
:101C80002C2073656374696F6E20466972737420CB
:101C90006C617965722063616C6962726174696FED
:101CA0006E2E00506C6163652061207368656574F9
:101CB000206F6620706170657220756E6465722099
:101CC000746865206E6F7A7A6C6520647572696ECF
:101CD00067207468652063616C6962726174696F02
:101CE0006E206F66206669727374203420706F698D
:101CF0006E74732E20496620746865206E6F7A7A40
:101D00006C65206361746368657320746865207016
:101D1000617065722C20706F776572206F66662027
:101D2000746865207072696E74657220696D6D6586
:101D300064696174656C792E00506C65617365200F
:101D400072656D6F766520737465656C2073686568
:101D500065742066726F6D20686561746265642EBB
:101D600000497320737465656C2073686565742021
:101D70006F6E20686561746265643F00206F662045
:101D80003400536561726368696E67206265642020
:101D900063616C6962726174696F6E20706F696EE5
:101DA0007400206F662039004D6561737572696E2D
:101DB00067207265666572656E6365206865696730
:101DC0006874206F662063616C6962726174696F08
:101DD0006E20706F696E7400506C6561736520636E
:101DE0006C65616E20746865206E6F7A7A6C652010
:101DF000666F722063616C6962726174696F6E2EC6
:101E000020436C69636B207768656E20646F6E6534
:101E10002E004175746F20686F6D650078797A6364
:101E2000616C5F6D656173737572655F656E746516
:101E3000720A0078797A63616C5F73706972616CA1
:101E4000382063783D25642063793D2564207A300D
:101E50003D256420647A3D25642072616469757350
:101E60003D25642061643D25640A0078797A6361C8
:101E70006C5F7365617263685A206E6F2073696767
:101E80006E616C0A20783D256C6420793D256C6478
:101E9000207A3D256C640A00204F4E2D5349474E51
:101EA000414C20617420783D256420793D256420D3
:101EB0007A3D25642061643D25640A0078797A635F
:101EC000616C5F7365617263685A20783D256C644C
:101ED00020793D256C64207A3D256C640A000A0057
:101EE000253032780078797A63616C5F7363616E54
:101EF0005F706978656C735F333278333220637852
:101F00003D25642063793D2564206D696E5F7A3DCF
:101F10002564206D61785F7A3D25640A00202532B2
:101F2000642025640A000A002530327800206D699B
:101F30006E3D2564206D61783D2564206469663DB1
:101F400025640A006D61785F633D253264206D6110
:101F5000785F6C3D25640A006D61785F633D2564A0
:101F6000206D61785F723D2564206D61785F6D61E1
:101F70007463683D25640A0020783D256420793D1E
:101F80002564207A3D25640A0020706174746572AE
:101F90006E20666F756E6420617420256420256450
:101FA0000A000000F000F801FC03FE07FE07FE0730
:101FB000FE07FC03F801F000000073697A656F66A4
:101FC00028746F74616C293D25640A0073697A6511
:101FD0006F6628626C6F636B5F62756666657229F7
:101FE0003D25640A0078797A63616C5F6D65617381
:101FF000737572655F6C656176650A00706F696EF6
:10200000743D256420783D256420793D2564207A3F
:102010003D25640A0058025802584D584DB004F04E
:1020200055F055B00478797A63616C5F66696E64C7
:102030005F6265645F696E64756374696F6E5F7318
:10204000656E736F725F706F696E745F78792078F8
:102050003D256C6420793D256C64207A3D256C64B7
:102060000A00203C20005741524E494E473A204634
:10207000726F6E7420706F696E74206E6F74207250
:102080006561636861626C652E205920636F6F72B1
:1020900064696E6174653A0000000040410000C050
:1020A0004000005C430000C04000005C430000466C
:1020B0004300004041000046434974657261746901
:1020C0006F6E3A200043616C6962726174696F6E71
:1020D000206661696C65642120436865636B2074C8
:1020E0006865206178657320616E642072756E206A
:1020F000616761696E2E002079645F6D696E3D25B0
:10210000752079645F6D61783D25752079645F6124
:1021100076673D25752073685F6176673D25750A92
:10212000002073745F73756D3D25752079645F734E
:10213000756D3D25752065725F73756D3D25752044
:1021400065725F6D61783D256868750A00004B49CE
:102150004C4C45442E20005072696E7465722068A4
:10216000616C7465642E206B696C6C282920636136
:102170006C6C656421004B494C4C3A2025640A0084
:102180004D31303420496E76616C69642065787415
:10219000727564657220004D31303520496E76616C
:1021A0006C696420657874727564657220004D31C5
:1021B000303920496E76616C696420657874727577
:1021C00064657220004D32313820496E76616C6949
:1021D0006420657874727564657220004D32323106
:1021E00020496E76616C69642065787472756465E7
:1021F00072200055564C4F202D20656E64202564BA
:102200000A007374707325640A006673656E736FD9
:10221000725F6F715F6D656173737572655F737403
:102220006F702C20256868752073616D706C657304
:102230000A006673656E736F725F6F715F6D6561C3
:1022400073737572655F73746172740A004D363012
:1022500030004653454E534F525F5245434F56450B
:1022600052006673656E736F725F7570646174653A
:10227000202D204D3630300A006673656E736F7204
:102280005F6572725F636E74203D20300A004731D3
:10229000204533204632303000473120452D332051
:1022A00046323030004D3730310020573A0020455B
:1022B0003A00543A005A206C6976652061646A7568
:1022C0007374206F7574206F662072616E67652E5F
:1022D0002053657474696E6720746F20302E20431C
:1022E0006C69636B20746F20636F6E74696E7565C3
:1022F0002E005A206C6976652061646A75737420BB
:102300006F7574206F662072616E67652E2053654D
:102310007474696E6720746F20300020423A002088
:10232000453A00543A00494E543400486561746996
:102330006E672064697361626C65642062792073E2
:1023400061666574792074696D65722E004D373051
:1023500031204530004D373031204531004D373088
:1023600031204532004D373031204533004D373074
:1023700031204534004D373031204534004D373061
:1023800031204533004D373031204532004D373054
:1023900031204531004D3730312045300046696CE1
:1023A000616D656E74206E72206F7574206F66208B
:1023B00072616E676521004164646974696F6E6162
:1023C0006C206C6F616420617474656D7074206E34
:1023D000722E2025640A00773235783230636C5FC4
:1023E00063666D0A00773235783230636C5F656EF4
:1023F0007465720A00506C656173652072656D6F5B
:1024000076652066696C616D656E7420616E64200E
:102410007468656E20707265737320746865206BD4
:102420006E6F622E00456A656374696E6720666927
:102430006C616D656E74004D4D55206C6F6164204C
:102440006661696C656420202020200020746F6F15
:10245000206C6F6E6720657874727573696F6E207B
:1024600070726576656E7465640020636F6C6420BD
:10247000657874727573696F6E2070726576656EBB
:102480007465640020003E003E0020003E003E00D7
:1024900054656D70657261747572652063616C69F5
:1024A00062726174696F6E206661696C65642E206A
:1024B000436F6E74696E75652077697468207072F9
:1024C000657373696E6720746865206B6E6F622E2A
:1024D0000054656D70657261747572652063616C1E
:1024E0006962726174696F6E20646F6E652E20433D
:1024F0006F6E74696E756520776974682070726597
:102500007373696E6720746865206B6E6F622E004E
:10251000473830004D3435004D3435205A004737A8
:10252000360054656D706572617475726520636103
:102530006C6962726174696F6E206661696C656452
:102540000054656D70657261747572652063616CAD
:102550006962726174696F6E2069732066696E6961
:102560007368656420616E64206163746976652EAA
:102570002054656D702E2063616C696272617469AC
:102580006F6E2063616E2062652064697361626CA6
:10259000656420696E206D656E752053657474697D
:1025A0006E67732D3E54656D702E2063616C2E0036
:1025B0004E2F41004F6666004F6E200049523A0090
:1025C00046494E44413A0050494E44413A00536511
:1025D0006E736F72207374617465004578747275E0
:1025E000646572004D6F7665205A004D6F766520E8
:1025F00059004D6F76652058001B5B324A4372616B
:10260000736820646574656374696F6E2063616EBE
:102610001B5B313B30486265207475726E656420C7
:102620006F6E206F6E6C7920696E1B5B323B304899
:102630004E6F726D616C206D6F6465001B5B324A7A
:102640005741524E494E473A1B5B313B304843722B
:1026500061736820646574656374696F6E1B5B32B7
:102660003B304864697361626C656420696E1B5B12
:10267000333B3048537465616C7468206D6F6465DA
:10268000004175746F6C6F6164696E672066696C78
:10269000616D656E7420617661696C61626C652044
:1026A0006F6E6C79207768656E2066696C616D6508
:1026B0006E742073656E736F722069732074757207
:1026C0006E6564206F6E2E2E2E004552524F523A88
:1026D0002046696C616D656E742073656E736F72F0
:1026E000206973206E6F7420726573706F6E6469F9
:1026F0006E672C20706C6561736520636865636B21
:1027000020636F6E6E656374696F6E2E0043616C3B
:1027100069627261746500506C65617365206C6FED
:10272000616420504C412066696C616D656E742057
:1027300066697273742E00497320504C412066699B
:102740006C616D656E74206C6F616465643F0043FD
:10275000616E63656C0046696C616D656E740053F3
:10276000656C65637420504C412066696C616D65D1
:102770006E743A0052756E6E696E672057697A61A1
:1027800072642077696C6C2064656C657465206385
:10279000757272656E742063616C696272617469CE
:1027A0006F6E20726573756C747320616E64207334
:1027B000746172742066726F6D2074686520626542
:1027C00067696E6E696E672E20436F6E74696E75F1
:1027D000653F0050726568656174696E67206E6F51
:1027E0007A7A6C652E20506C65617365207761691B
:1027F000742E00456A65637400556E6C6F616400E9
:1028000055736520756E6C6F616420746F207265FE
:102810006D6F76652066696C616D656E7420312020
:1028200069662069742070726F74727564657320B4
:102830006F757473696465206F66207468652072B3
:10284000656172204D4D5520747562652E2055735B
:102850006520656A65637420696620697420697300
:102860002068696464656E20696E20747562652EE7
:10287000004C6F6164696E672066696C616D656E9E
:102880007400506C6561736520696E7365727420A5
:10289000504C412066696C616D656E7420746F20C8
:1028A0007468652065787472756465722C2074682C
:1028B000656E207072657373206B6E6F6220746F2B
:1028C000206C6F61642069742E00506C65617365C3
:1028D00020696E7365727420504C412066696C618A
:1028E0006D656E7420746F207468652066697273FC
:1028F000742074756265206F66204D4D552C2074D0
:1029000068656E20707265737320746865206B6EE5
:102910006F6220746F206C6F61642069742E00599F
:102920006F752063616E20616C77617973207265C9
:1029300073756D65207468652057697A61726420CB
:1029400066726F6D2043616C6962726174696F6E4B
:10295000202D3E2057697A6172642E00506C6561AB
:10296000736520636865636B206F75722068616EA4
:1029700064626F6F6B20616E642066697820746892
:10298000652070726F626C656D2E205468656E20D4
:10299000726573756D65207468652057697A617218
:1029A00064206279207265626F6F74696E6720744B
:1029B0006865207072696E7465722E00416C6C20BF
:1029C000697320646F6E652E204861707079207085
:1029D00072696E74696E672100506C656173652061
:1029E000636C65616E206865617462656420616E08
:1029F00064207468656E20707265737320746865F6
:102A0000206B6E6F622E00446F20796F75207761A6
:102A10006E7420746F20726570656174206C6173D0
:102A200074207374657020746F20726561646A75B8
:102A300073742064697374616E6365206265747772
:102A400065656E206E6F7A7A6C6520616E642068B1
:102A50006561746265643F00492077696C6C20731E
:102A60007461727420746F207072696E74206C6966
:102A70006E6520616E6420796F752077696C6C20BB
:102A80006772616475616C6C79206C6F7765722018
:102A9000746865206E6F7A7A6C6520627920726F37
:102AA000746174696E6720746865206B6E6F622C48
:102AB00020756E74696C20796F752072656163682A
:102AC000206F7074696D616C206865696768742E29
:102AD00020436865636B2074686520706963747552
:102AE00072657320696E206F75722068616E646212
:102AF0006F6F6B20696E206368617074657220432C
:102B0000616C6962726174696F6E2E004E6F77201E
:102B1000492077696C6C2063616C696272617465CD
:102B20002064697374616E6365206265747765659E
:102B30006E20746970206F6620746865206E6F7AED
:102B40007A6C6520616E64206865617462656420DA
:102B5000737572666163652E004973206974205035
:102B60004C412066696C616D656E743F0053656C05
:102B7000656374206E6F7A7A6C6520707265686523
:102B800061742074656D706572617475726520770B
:102B900068696368206D61746368657320796F7517
:102BA00072206D6174657269616C2E004E6F7720C2
:102BB000492077696C6C2070726568656174206E5D
:102BC0006F7A7A6C6520666F7220504C412E0049F6
:102BD000732066696C616D656E74206C6F616465ED
:102BE000643F0049732066696C616D656E742031C5
:102BF000206C6F616465643F004E6F7720492077D9
:102C0000696C6C2070726568656174206E6F7A7A89
:102C10006C6520666F7220504C412E004920776908
:102C20006C6C2072756E207A2063616C69627261CF
:102C300074696F6E206E6F772E004E6F772072650D
:102C40006D6F76652074686520746573742070728A
:102C5000696E742066726F6D20737465656C207385
:102C6000686565742E00506C656173652072656DD2
:102C70006F7665207368697070696E672068656C2F
:102C8000706572732066697273742E0049207769CB
:102C90006C6C2072756E2078797A2063616C696241
:102CA000726174696F6E206E6F772E204974207781
:102CB000696C6C2074616B6520617070726F782E26
:102CC000203132206D696E732E0046697273742C48
:102CD00020492077696C6C2072756E2074686520BD
:102CE00073656C667465737420746F2063686563C4
:102CF0006B206D6F737420636F6D6D6F6E206173E9
:102D000073656D626C792070726F626C656D732E85
:102D10000048692C204920616D20796F7572204F21
:102D2000726967696E616C205072757361206933D6
:102D3000207072696E7465722E20576F756C6420F6
:102D4000796F75206C696B65206D6520746F2067E5
:102D50007569646520796F75207468726F7567682E
:102D6000207468652073657475702070726F636578
:102D700073733F00452D636F7272656374005A2D43
:102D8000636F727265637400592D636F727265634D
:102D90007400582D636F72726563740053706F6FA7
:102DA0006C4A6F696E2020205B4E2F415D0053708E
:102DB0006F6F6C4A6F696E2020205B6F66665D00E6
:102DC00053706F6F6C4A6F696E202020205B6F6EAE
:102DD0005D00536F756E642020202020205B6C6F97
:102DE00075645D00536F756E642020202020205B89
:102DF0006D7574655D00536F756E64202020205BD7
:102E000073696C656E745D00536F756E642020206D
:102E10002020205B6F6E63655D00536F756E6420CC
:102E200020202020205B6C6F75645D00536F7274EE
:102E30003A2020202020205B6E6F6E655D00536F6E
:102E400072743A20205B616C7068616265745D0029
:102E5000536F72743A2020202020205B74696D65C6
:102E60005D005344206361726420205B6E6F726D5D
:102E7000616C5D0053442063617264205B666C7317
:102E8000684169725D0052506920706F7274202031
:102E90002020205B6F6E5D0052506920706F72744D
:102EA000202020205B6F66665D0054656D702E20CB
:102EB00063616C2E2020205B6F6E5D0054656D7029
:102EC0002E2063616C2E20205B6F66665D004C696E
:102ED0006E2E20636F7272656374696F6E00466157
:102EE0006E7320636865636B20205B6F66665D00B0
:102EF00046616E7320636865636B2020205B6F6E94
:102F00005D00462E206175746F6C6F6164205B6F8D
:102F100066665D00462E206175746F6C6F6164207B
:102F2000205B6F6E5D00462E206175746F6C6F6163
:102F300064205B4E2F415D0046696C2E2073656EE8
:102F4000736F72205B4E2F415D0044697361626C48
:102F500065207374657070657273004D6F766520BF
:102F6000617869730054656D70657261747572651E
:102F70000054656D702E2063616C696272617469C2
:102F80006F6E0052657365742058595A2063616CE6
:102F90006962722E005049442063616C69627261FB
:102FA00074696F6E00426564206C6576656C2063A1
:102FB0006F7272656374004D6573682042656420AA
:102FC0004C6576656C696E670043616C696272611D
:102FD0007465205A0043616C69627261746520589F
:102FE000595A0053656C6674657374202020202044
:102FF00020202020004669727374206C617965720C
:103000002063616C2E0057697A617264004C6F61B5
:10301000642066696C616D656E742035004C6F616B
:10302000642066696C616D656E742034004C6F615C
:10303000642066696C616D656E742033004C6F614D
:10304000642066696C616D656E742032004C6F613E
:10305000642066696C616D656E742031004C6F612F
:103060006420616C6C004C6F61642066696C616DFA
:10307000656E742035004C6F61642066696C616D0B
:10308000656E742034004C6F61642066696C616DFC
:10309000656E742033004C6F61642066696C616DED
:1030A000656E742032004C6F61642066696C616DDE
:1030B000656E74203100456A6563742066696C61D1
:1030C0006D656E74203500456A6563742066696CB1
:1030D000616D656E74203400456A656374206669AD
:1030E0006C616D656E74203300456A65637420669B
:1030F000696C616D656E74203200456A6563742089
:1031000066696C616D656E74203100506C65617329
:10311000652070756C6C206F75742066696C616DCC
:10312000656E7420696D6D6564696174656C7900A4
:10313000556E6C6F6164696E672066696C616D6560
:103140006E740057697A61726420656E64207374CE
:103150006174653A2025640A0057697A61726420B7
:1031600073746174653A2025640044697361626C0C
:1031700065206661726D206D6F6465004661726DD9
:10318000206E756D626572004D3834004D34340028
:103190004732382057004739390044697361626CFF
:1031A00065206661726D206D6F64653F0043686FD6
:1031B0006F736520636F6C6F723A0043757272654E
:1031C0006E74005573656420647572696E67207053
:1031D00072696E74005049442063616C2E206669E8
:1031E0006E6973686564005049442063616C2E20E9
:1031F0002020202020202020202000506C6561739A
:10320000652077616974004D3131372046697273EA
:1032100074206C617965722063616C2E0050726954
:103220006E742070617573656400496E76616C69B7
:1032300064205049442063616C2E20726573756C64
:1032400074732E204E6F742073746F7265642074D3
:103250006F20454550524F4D2E004D3530300047C0
:1032600031205A3135204631353030004739310070
:1032700047312058353020593139302045302046EB
:103280003730303000473930004D373032004D375D
:1032900030322043004D3730322055004D37303228
:1032A000004D3730322043004731205A3135204617
:1032B0003135303000473931004731205835302022
:1032C00059313930204530204637303030004D38C4
:1032D0003300473930004D3834004D3130342053FD
:1032E00030004D3834004D37303220430047312014
:1032F0005831302059313830204634303030004792
:1033000031205A31302046313330302E30303000C9
:103310004D313430205330004D31303420533000A3
:10332000473120452D302E30373530302046323170
:1033300030302E3030303030004D313037004731B2
:1033400020583530205935352045332E3632373721
:103350003300473120583230302059353520453040
:103360002E34393338360047312058323030205926
:1033700037352045332E3632373733004731205822
:103380003530205937352045302E34393338360022
:10339000473120583530205939352045332E3632C3
:1033A00037373300473120583230302059393520F3
:1033B00045302E34393338360047312058323030DA
:1033C00020593131352045332E36323737330047D7
:1033D000312058353020593131352045302E34399F
:1033E00033383600473120583530205931333520B5
:1033F00045332E363237373300473120583230309C
:1034000020593133352045302E3636313734004798
:1034100031205832303020593135352045322E3662
:103420003237373300473120583130302059313569
:103430003520453200473120583735205931353550
:103440002045322E35004731204631303830004794
:1034500031205A302E3135302046373230302E3040
:10346000303000473120583530205931353500474C
:1034700031204634303030004D323034205331303A
:103480003030004731205A352046373230302E3028
:10349000303000473120452D312E3530303030204E
:1034A00046323130302E3030303030004D3833003D
:1034B00047393000473231004739322045302E300D
:1034C00000473120583130302E30204531322E35F2
:1034D0002046313030302E30004731205836302EE3
:1034E000302045392E302046313030302E300047E4
:1034F000312058352E302045342E302046313030A2
:10350000302E30004731205A302E323020463130B4
:1035100030302E30004731205835352E302045329E
:10352000352046313430302E3000473120592D328D
:103530002E302046313030302E3000473120583286
:1035400034302E30204532352E3020204632323075
:10355000302E30004739322045302E3000473120A0
:103560005A302E332046313030302E300047312053
:103570005835352E302045382E3020463230303008
:103580002E300047312058352E30204533322E3032
:103590002046313830302E30004731205835352E16
:1035A00030204533322E302046313037332E300034
:1035B0004731205A302E342046313030302E300002
:1035C000473120592D332E302046313030302E30C7
:1035D000004D3833004739322045302E3000473215
:1035E00038004D3130392053323135004D313930CA
:1035F00020533630004D31343020533630004D31B9
:1036000030342053323135004D31303700544D4382
:1036100020445249564552204F56455254454D502C
:103620000025632533642F25642563005A25362E33
:10363000326620005A2020202D2D2D2000256325C4
:1036400033642525002D2D2D002533686864002561
:103650003353253373252500555342002020200085
:10366000205344002025753E257500203F3E2575DA
:1036700000204625750020463F00204630202000CF
:1036800025632D2D3A2D2D202000256325337568C7
:103690002025632563002563253032753A253032B5
:1036A000752563256300726573756C742076616C93
:1036B00075653A2025640A0020693D25326420633F
:1036C0006E743D2532642076616C3D2532640A00BB
:1036D000636C7573746572733A0A0020693D253214
:1036E0006420737465703D2532640A00736F7274D0
:1036F00065642073616D706C65733A0A003A20004E
:1037000020202020202020202020202020202020B9
:1037100020202000203A20002020202020202020CF
:1037200020202020202020202020202000202020B9
:103730002020202020202020202000257300504918
:103740004E44412048656174696E670054656D7030
:103750002E2063616C2E202020202020202020207D
:103760000043616C6962726174696F6E20646F6E90
:10377000650043616C6962726174696E67205A000A
:1037800042656420646F6E6500426564204865612F
:1037900074696E670048656174696E6720646F6E56
:1037A000652E0048656174696E6700457872656DC5
:1037B00065207370616E206F6620746865205A20E2
:1037C00076616C75657321006F6B0A0073746172AA
:1037D000740A004D4D5532206669726D77617265CD
:1037E0002076657273696F6E20696E76616C6964AC
:1037F0002E205265717569726564207665727369F1
:103800006F6E3A206275696C64206E756D626572C8
:10381000202564206F72206869676865722E0066D3
:1038200073656E736F725F73746F705F616E645FE8
:10383000736176655F7072696E740A004D4D552034
:103840003D3E20276F6B270A002564004D4D552013
:10385000726574727920617474656D7074206E7213
:103860002E2025640A004D4D55203D3E20276F6BCC
:10387000270A00410A004D4D55203C3D2027412795
:103880000A004D363030004D363030204155544F0F
:10389000004653454E534F525F5245434F56455293
:1038A00000256868750050300A0053330A004D4DFA
:1038B00055203C3D20275333270A0052300A004D43
:1038C0004D55203C3D20275230270A004525640AEB
:1038D000004D4D55203C3D2027452564270A0055C5
:1038E000300A004D4D55203C3D20275530270A0019
:1038F00043300A004D4D55203C3D20274330270AD8
:10390000004C25640A004D4D55203C3D20274C2598
:1039100064270A005425640A004D4D55203C3D2083
:1039200027542564270A004D4D55202D20454E4132
:10393000424C454400256868750050300A005030FC
:103940000A004D4D552076657273696F6E20766161
:103950006C6964004D4D55203D3E202725646F6BFA
:10396000270A0025750053320A004D4D55203C3D75
:103970002027533227004D4D55203D3E20272564FA
:103980006F6B270A002575004D4D55206E6F742012
:10399000726573706F6E64696E67202D20444953A1
:1039A00041424C45440053310A004D4D55203C3DA9
:1039B0002027533127004D4D55203D3E202773745D
:1039C00061727427006D6D755F6765745F726573F2
:1039D000706F6E736528292072657475726E696EDA
:1039E000673A2025640A00556E6C6F6164696E67E2
:1039F0002066696E697368656420320A00556E6CD2
:103A00006F616420320A00556E6C6F6164696E6785
:103A10002066696E697368656420310A00556E6CB2
:103A20006F616420310A006D6D755F6765745F7248
:103A30006573706F6E7365202D20626567696E20F7
:103A40006D6F76653A25640A004D4D55207374619B
:103A500072747320726573706F6E64696E670A00AA
:103A60004D4D55206E6F7420726573706F6E646972
:103A70006E670A000000803F555585410000803F79
:103A80000000C84100000040555505420000C03FFD
:103A9000000048420000204055558542000070C19A
:103AA000ABAAA642000060C10000A0410000C0C057
:103AB0000000204100002041ABAA3A41000020C193
:103AC0005555D540000048C2555505424265642011
:103AD0006C6576656C696E67206661696C65642EDD
:103AE0002053656E736F72206469646E7420747203
:103AF00069676765722E20446562726973206F6E14
:103B0000206E6F7A7A6C653F2057616974696E67C1
:103B100020666F722072657365742E00506C65614B
:103B2000736520757064617465206669726D776174
:103B3000726520696E20796F7572204D4D55322E59
:103B40002057616974696E6720666F7220726573B1
:103B500065742E004D4D55204F4B2E2052657375C8
:103B60006D696E672E2E2E004D4D55204F4B2E2029
:103B7000526573756D696E6720706F736974696FD4
:103B80006E2E2E2E004D4D55204F4B2E205265731C
:103B9000756D696E672074656D706572617475729C
:103BA000652E2E2E0046697820746865206973732F
:103BB000756520616E64207468656E20707265732F
:103BC0007320627574746F6E206F6E204D4D55209A
:103BD000756E69742E005072657373207468652069
:103BE0006B6E6F6220746F20726573756D65206EE9
:103BF0006F7A7A6C652074656D7065726174757228
:103C0000652E004D4D55206E656564732075736596
:103C10007220617474656E74696F6E2E0025632561
:103C200033642F256425630024F4D43050C38E20E0
:103C3000C2A24017828B7011127A910D816CD90A41
:103C4000A861E108C7586607615143061E4B5D0530
:103C5000C145A7041A411104093D98037139310384
:103C60004036DB0265339102D4305402802E1D02AF
:103C7000632CEE01752AC501B028A001102781012F
:103C80008F2564012B244B01E0223401AC211F015C
:103C90008D200D01801FFC00841EED00971DDF00AC
:103CA000B81CD200E61BC600201BBC00641AB20080
:103CB000B219A8000A19A0006A189900D11791003A
:103CC00040178B00B516840031167E00B3157900BD
:103CD0003A157300C7146F0058146A00EE1366009B
:103CE0008813630025135E00C7125B006C12570037
:103CF00015125400C111510070114F0021114B00D9
:103D0000D61049008D1047004610440002104200B2
:103D1000C00F4000800F3E00420F3C00060F3B00EA
:103D2000CB0E3800930E37005C0E3500270E3400A2
:103D3000F30D3200C10D3100900D3000600D2E00EA
:103D4000320D2D00050D2C00D90C2B00AE0C2900D6
:103D5000850C29005C0C2700350C27000E0C260072
:103D6000E80B2400C40B2400A00B23007D0B2300D0
:103D70005A0B2100390B2100180B2000F80A1F00F4
:103D8000D90A1E00BB0A1E009D0A1D00800A1D00E4
:103D9000630A1C00470A1B002C0A1B00110A1A00A8
:103DA000F7091A00DD091900C4091900AB09190047
:103DB000920917007B091800630917004C091600C7
:103DC00036091600200916000A091500F508150025
:103DD000E0081400CC081400B8081400A40814006B
:103DE000900813007D0812006B0813005808120099
:103DF00046081200340811002308110012081100AF
:103E000001081100F0071000E0071000D0071000B3
:103E1000C0071000B0070F00A107100091070E00A7
:103E200083070F0074070F0065070E0057070E0089
:103E300049070E003B070D002E070E0020070D005E
:103E400013070D0006070D00F9060C00ED060D0026
:103E5000E0060C00D4060C00C8060C00BC060C00E2
:103E6000B0060C00A4060B0099060C008D060B0092
:103E700082060B0077060B006C060B0061060A0039
:103E800057060B004C060A0042060A0038060A00D4
:103E90002E060A0024060A001A060A001006090067
:103EA00007060A00FD050900F4050900EB050900F5
:103EB000E2050900D9050900D0050900C705090078
:103EC000BE050900B5050800AD050800A5050900F7
:103ED0009C050800940508008C050800840508006E
:103EE0007C050800740508006C05070065050800DE
:103EF0005D050700560508004E0507004705070049
:103F00004005080038050700310507002A050700AD
:103F1000230507001C050600160507000F0507000E
:103F20000805060002050700FB040600F50407006B
:103F3000EE040600E8040600E2040700DB040600C5
:103F4000D5040600CF040600C9040600C304060019
:103F5000BD040600B7040600B1040500AC04060069
:103F6000A6040600A00405009B04060095040500B5
:103F7000900406008A0405008504050080040600FC
:103F80007A04050075040500700405006B04050043
:103F900066040500610405005C0405005704050083
:103FA000520405004D0405004804050043040500C3
:103FB0003E0404003A040500350405003004040002
:103FC0002C04050027040400230405001E0404003B
:103FD0001A04040016040500110404000D04040072
:103FE000090405000404040000040400FC030400A8
:103FF000F8030400F4030400F0030400EC030400DD
:10400000E8030400E4030400E0030400DC0304000C
:10401000D8030400D4030400D0030400CC0304003C
:10402000C8030300C503030024F404D9201BC40CF7
:104030005C0E9804C4095F0265077101F405F9007C
:10404000FB04B30048048700C1036900580355000E
:1040500003034500BE023A008402310053022A00E5
:104060002902250004022000E4011C00C8011900F7
:10407000AF011700980114008401130071011000B2
:104080006101100051010E0043010D0036010B00CB
:104090002B010B0020010B00150109000C01090088
:1040A00003010800FB000800F3000800EB00070014
:1040B000E4000600DE000600D8000600D20006007C
:1040C000CC000500C7000500C2000500BD000400CB
:1040D000B9000400B5000400B1000400AD00040004
:1040E000A9000400A5000300A20003009F00040033
:1040F0009B0003009800030095000200930003005A
:10410000900003008D0002008B0003008800020075
:104110008600020084000300810002007F0002008C
:104120007D0002007B0002007900020077000100A0
:1041300076000200740002007200010071000200AB
:104140006F0002006D0001006C0002006A000100B7
:1041500069000200670001006600010065000100BF
:1041600064000200620001006100010060000100C3
:104170005F0002005D0001005C0001005B000100C7
:104180005A000100590001005800010057000100C9
:1041900056000100550001005400010053000000CA
:1041A00053000100520001005100010050000100C5
:1041B0004F0001004E0000004E0001004D000100C4
:1041C0004C0001004B0000004B0001004A000100C0
:1041D00049000100480000004800010047000100BC
:1041E00046000000460001004500000045000100B7
:1041F00044000100430000004300010042000000B1
:1042000042000100410000004100010040000100A7
:104210003F0000003F0001003E0000003E000100A2
:104220003D0000003D0001003C0000003C0000009B
:104230003C0001003B0000003B0001003A00000090
:104240003A00010039000000390001003800000088
:10425000380000003800010037000000370001007E
:104260003600000036000000360001003500000076
:10427000350000003500010034000000340000006B
:10428000340001003300000033000000330001005F
:104290003200000032000000320001003100000056
:1042A000310000003100010030000000300000004B
:1042B000300001002F0000002F0000002F00000040
:1042C0002F0001002E0000002E0000002E00010033
:1042D0002D0000002D0000002D0000002D00010029
:1042E0002C0000002C0000002C0000002C0001001D
:1042F0002B0000002B0000002B0000002B00010011
:104300002A0000002A0000002A0000002A00010004
:1043100029000000290000002900000029000000F9
:1043200029000100280000002800000028000000EB
:1043300028000000280001002700000027000000DE
:1043400027000000270000002700010026000000D1
:1043500026000000260000002600000026000100C4
:1043600025000000250000002500000025000000B9
:1043700025000000250001002400000024000000AA
:10438000240000002400000024000100230000009D
:104390002300000023000000230000002300000091
:1043A0002300000023000100220000002200000082
:1043B0002200000022000000220000002200010074
:1043C0002100000021000000210000002100000069
:1043D0002100000021000000210001002000000059
:1043E000200000002000000020000000200000004D
:1043F0002000000020000000200001001F0000003D
:104400001F0000001F0000001F0000001F00000030
:104410001F0000001F0001001E0000001E00000021
:104420001E0000001E000000526573756D696E6706
:10443000207072696E7400537570706F72740046EC
:1044400061696C207374617473204D4D5500466131
:10445000696C20737461747300537461746973744C
:1044600069637320200043616C6962726174696FD3
:104470006E004175746F4C6F61642066696C616D8C
:10448000656E7400556E6C6F61642066696C616D59
:10449000656E7400456A6563742066696C616D655C
:1044A0006E74004C6F616420746F206E6F7A7A6C4A
:1044B00065004C6F61642066696C616D656E7400A7
:1044C0004E6F2053442063617264005072696E74B1
:1044D0002066726F6D20534400526573756D6520C0
:1044E0007072696E74005061757365207072696EC8
:1044F0007400507265686561740054756E65004C97
:104500006976652061646A757374205A00496E6625
:104510006F2073637265656E0046696E69736869C2
:104520006E67206D6F76656D656E747300536F7581
:104530006E642020202020205B6C6F75645D00532A
:104540006F756E642020202020205B6D7574655D82
:1045500000536F756E64202020205B73696C656E5C
:10456000745D00536F756E642020202020205B6FE7
:104570006E63655D00536F756E64202020202020DF
:104580005B6C6F75645D0043726173682064657471
:104590002E20205B4E2F415D0043726173682064C2
:1045A00065742E2020205B6F6E5D0043726173681E
:1045B000206465742E20205B6F66665D004D6F641D
:1045C00065202020205B537465616C74685D004D2C
:1045D0006F646520202020205B4E6F726D616C5DE2
:1045E0000046696C2E2073656E736F7220205B6FBE
:1045F0006E5D0046696C2E2073656E736F72205B72
:104600006F66665D004368616E67652066696C6110
:104610006D656E7400466C6F77005370656564005D
:1046200046616E20737065656400426564004E6F7C
:104630007A7A6C650053657474696E6773005072A2
:10464000696E742061626F727465640059657300ED
:104650004E6F0053746F70207072696E74004669FB
:104660006C6520696E636F6D706C6574652E204398
:104670006F6E74696E756520616E797761793F0040
:104680004D61696E004D3730322043004661726DD6
:10469000206E756D626572004D363030004D3234DB
:1046A000004D323320257300052E2E00776F726C7B
:1046B0006420636F6F7264696E617465733A202859
:1046C000252E33662C20252E33662C20252E33668E
:1046D000290A00706879736963616C20636F6F7277
:1046E00064696E617465733A2028252E33662C2028
:1046F000252E33662C20252E3366290A0043757239
:1047000072656E7420706F73205A5F415849533A36
:10471000252E33660A43757272656E7420706F734E
:1047200020455F415849533A252E33660A004166B9
:104730007465722077616974696E6720666F722094
:1047400074656D703A0A43757272656E7420706F8D
:104750007320585F415849533A252E33660A4375F2
:104760007272656E7420706F7320595F415849539F
:104770003A252E33660A007265636F7665725F6D47
:10478000616368696E655F73746174655F616674A7
:1047900065725F706F7765725F70616E69632C2000
:1047A000696E697469616C20007265636F76657209
:1047B0005F6D616368696E655F73746174655F6185
:1047C000667465725F706F7765725F70616E696342
:1047D0002C20696E697469616C200047393220456C
:1047E0000050525553412075766C6F00473420536A
:1047F00030004D32362053256C75004D3130362057
:1048000053004D383200473120462564004731209F
:1048100045322A64656661756C745F726574726195
:104820006374696F6E2046343830004731205A0077
:104830002046323030300020590047312058004D9A
:10484000383300506F736974696F6E2072656164EC
:104850002066726F6D20656570726F6D3A004D3223
:1048600033202573002E67636F00466565647261AF
:1048700074653A00473120452D64656661756C7436
:104880005F72657472616374696F6E20463438308C
:104890000047312045352046313230004D38330055
:1048A0004D31393020532564004D313039205325A6
:1048B000640047323820582059004731205A323599
:1048C0002046383030002046004731205A0020462C
:1048D0000047312045004D3833006F6B0A00627588
:1048E00073793A2070617573656420666F72206910
:1048F0006E70757400627573793A207061757365B6
:104900006420666F72207573657200627573793A00
:104910002070726F63657373696E67000000211009
:10492000422063308440A550C660E7700881299119
:104930004AA16BB18CC1ADD1CEE1EFF131121002C1
:1049400073325222B5529442F772D6623993188369
:104950007BB35AA3BDD39CC3FFF3DEE3622443348D
:1049600020040114E664C774A44485546AA54BB5B9
:1049700028850995EEE5CFF5ACC58DD55336722661
:1049800011163006D776F6669556B4465BB77AA709
:1049900019973887DFF7FEE79DD7BCC7C448E558AD
:1049A0008668A7784008611802282338CCC9EDD959
:1049B0008EE9AFF9488969990AA92BB9F55AD44A01
:1049C000B77A966A711A500A333A122AFDDBDCCBA9
:1049D000BFFB9EEB799B588B3BBB1AABA66C877CCD
:1049E000E44CC55C222C033C600C411CAEED8FFDF9
:1049F000ECCDCDDD2AAD0BBD688D499D977EB66EA1
:104A0000D55EF44E133E322E511E700E9FFFBEEF48
:104A1000DDDFFCCF1BBF3AAF599F788F8891A9810A
:104A2000CAB1EBA10CD12DC14EF16FE18010A100F4
:104A3000C230E3200450254046706760B9839893E4
:104A4000FBA3DAB33DC31CD37FE35EF3B102901244
:104A5000F322D2323542145277625672EAB5CBA5B0
:104A6000A89589856EF54FE52CD50DC5E234C32494
:104A7000A01481046674476424540544DBA7FAB784
:104A80009987B8975FE77EF71DC73CD7D326F236E4
:104A90009106B01657667676154634564CD96DC9D0
:104AA0000EF92FE9C899E9898AB9ABA94458654834
:104AB00006782768C018E1088238A3287DCB5CDB24
:104AC0003FEB1EFBF98BD89BBBAB9ABB754A545A84
:104AD000376A167AF10AD01AB32A923A2EFD0FEDF0
:104AE0006CDD4DCDAABD8BADE89DC98D267C076CD4
:104AF000645C454CA23C832CE01CC10C1FEF3EFFC4
:104B00005DCF7CDF9BAFBABFD98FF89F176E367E23
:104B1000554E745E932EB23ED10EF01E5265636FF9
:104B2000766572696E67207072696E74202020202D
:104B300000332E352E3100726300626574610061AE
:104B40006C706861006465760078797A63616C5F87
:104B500073706972616C322063783D2564206379DB
:104B60003D2564207A303D256420647A3D2564200B
:104B70007261646975733D25642061643D25640A32
:104B80000001021020200808102040102040800260
:104B90000102010804020101020408102040808083
:104BA0004020100804020180040201804020100807
:104BB00004020108040201010204081020408001DF
:104BC00002040810204080100804088010204004CF
:104BD0004080102040048000002200250028002B87
:104BE000002E003100340002010000050108010B15
:104BF0000105050505070508080808020202020A62
:104C00000A0808040404040101010101010101036F
:104C100003030303030303040707070C0C0C0C0C2A
:104C20000C0C0C0202020206060606060606060B1D
:104C30000B0B0B0B0B0B0B07070A0A0A0A0A0A05D8
:104C40000505040404080802746D63323133305FD3
:104C5000676F746F5F73746570202564202564200E
:104C60002564202564200A002E006F70656E206682
:104C700061696C65642C2046696C653A20004D378B
:104C80003032004D3730310045787472756465728A
:104C9000006D6D000059005800580059005A002559
:104CA00063252E3132533A2573252B30362E336649
:104CB0000046696C616D656E742065787472756408
:104CC000696E672026207769746820636F72726549
:104CD000637420636F6C6F723F005072656865612A
:104CE0007420746865206E6F7A7A6C652100455275
:104CF000524F523A004175746F6C6F6164696E6710
:104D00002066696C616D656E7420697320616374DF
:104D10006976652C206A75737420707265737320D0
:104D2000746865206B6E6F6220616E6420696E73BB
:104D30006572742066696C616D656E742E2E2E002E
:104D4000546F74616C207072696E742074696D6543
:104D500000546F74616C2066696C616D656E7400DF
:104D60005072696E742074696D650046696C616D7E
:104D7000656E742075736564005269676874004CD1
:104D800065667400592064697374616E636520669A
:104D9000726F6D206D696E00536576657265207364
:104DA0006B657700536C6967687420736B65770077
:104DB0004D6561737572656420736B6577005B3058
:104DC0003B305D20706F696E74206F66667365742A
:104DD0000041646A757374696E67205A0052657386
:104DE000657400526561722073696465205B756D3E
:104DF0005D0046726F6E7420736964655B756D5DEE
:104E000000526967687420736964655B756D5D0045
:104E10004C6566742073696465205B756D5D005335
:104E200065742074656D70657261747572653A00A1
:104E30001B5B324A2553203A1B5B313B39482538EE
:104E40002E3266206D0A2553203A0A25376C646499
:104E5000203A253268686468203A253032686864F0
:104E6000206D001B5B324A25533A1B5B313B3648B1
:104E700025382E32666D200A2553203A1B5B333BC2
:104E800038482532646820253032646D2025303260
:104E900064730025362E32666D6D004E2F41001B67
:104EA0005B303B304825533A0A25530A25533A0ACA
:104EB00025533A001B5B303B3135484E2F41001BD8
:104EC0005B303B31354825342E326601001B5B30A8
:104ED0003B304825533A0A25530A25533A202025CA
:104EE000352E3266010A25533A202025352E3266AA
:104EF00001004572723A205052494E542046414EAC
:104F0000204552524F52005072696E742066616E95
:104F1000207370656564206973206C6F77657220FB
:104F20007468656E206578706563746564004572A9
:104F3000723A20455854522E2046414E2045525236
:104F40004F520045787472756465722066616E20F8
:104F50007370656564206973206C6F776572207467
:104F600068656E206578706563746564002F2F2016
:104F7000616374696F6E3A70617573650070012CBE
:104F80000190012701B0012201C0011D01F00118AB
:104F9000011002130130020E0160020901900204A7
:104FA00001C002FF000003FA004003F5008003F097
:104FB00000D003EB002004E6007004E100E004DC14
:104FC000004005D700C005D2004006CD00D006C87D
:104FD000008007C3003008BE00F008B900C009B463
:104FE00000B00AAF00B00BAA00D00CA500000EA0C4
:104FF00000500F9B00C01096005012910000148CBE
:1050000000C0158700B0178200B0197D00D01B7852
:1050100000001E730040206E0090226900F024649E
:105020000040275F0090295A00E02B5500102E50B9
:105030000020304B0010324600E033410090353CF8
:10504000001037370070383200A0392D00B03A28F0
:1050500000A03B2300603C1E00103D1900903D1451
:1050600000103E0F00703E0A00C03E0500003F00E9
:105070000090137D00B0157800F0177300601A6E71
:1050800000F01C6900A01F640050225F0020255A18
:1050900000E0275500902A5000202D4B00A02F46FD
:1050A00000F031410010343C00F0353700A03732B9
:1050B0000020392D00603A2800703B2300603C1E20
:1050C00000203D1900C03D1400403E0F00A03E0AE4
:1050D00000F03E0500403F0000703FFBFF903FF6B0
:1050E000FFB03FF1FFC03FECFFD03FE7FFE03FE202
:1050F000FFF03FDDFFF03FD8FF20484F54454E44BE
:1051000020544845524D414C2052554E415741592B
:1051100000204845415442454420544845524D41A1
:105120004C2052554E4157415900544845524D412B
:105130004C2052554E415741590042454420544855
:1051400045524D414C2052554E4157415900205433
:105150004845524D414C2052554E41574159202807
:10516000205052454845415420484F54454E44290B
:105170000020544845524D414C2052554E41574114
:105180005920282050524548454154204845415413
:105190004245442900505245484541542045525209
:1051A0004F52004245442050524548454154204505
:1051B00052524F5200436F6E74696E756520776965
:1051C000746820616E6F7468657220626F776465C1
:1051D0006E3F0025002020202020200020202020BD
:1051E00020200045524153494E4720616C6C206499
:1051F00061746100466163746F7279205245534552
:10520000540000007F4300805443000052430000DC
:105210000000000080C09A99193E000000000000C4
:1052200080C09A99193E000E1315110E000000045B
:10523000120912040000001C1F11111F00000006BB
:10524000191803130C00040E1F041C000000040AAC
:105250000A0A0A11110E001F1511151F0000000186
:1052600003161C0800000000110A04110A040C12A5
:10527000120C000000002563252D313853256300F2
:105280002563252E3135533A257325336400256374
:10529000252E3132533A25732500205B6F66665DFB
:1052A0000041786973206C656E6774682064696674
:1052B000666572656E63653A252E33660A004D6534
:1052C0006173757265642061786973206C656E67BF
:1052D00074683A252E33660A0025632041584953E5
:1052E000205347313D25640A002D2D2D2D2D2D2DC8
:1052F0002D2D2D2D2D2D2D2D2D2D2D2D2D004361C1
:105300006C6962726174696E6720686F6D65000018
:1053100000000000110A0446696C616D656E74201E
:1053200073656E736F7200537761707065640046C9
:10533000726F6E742F6C6566742066616E730041C7
:105340007869730041786973206C656E67746800D2
:105350004C6F6F73652070756C6C657900456E6479
:1053600073746F70206E6F742068697400456E648A
:1053700073746F70004D6F746F7200456E64737458
:105380006F707300576972696E67206572726F7211
:1053900000426564202F20486561746572004E6F7D
:1053A0007420636F6E6E6563746564004865617434
:1053B00065722F546865726D6973746F7200506CFA
:1053C0006561736520636865636B203A0053656CA3
:1053D0006674657374206572726F7220210046696D
:1053E0006C616D656E742073656E736F723A0050F8
:1053F00072696E742066616E3A00457874727564E5
:1054000065722066616E3A0053656C6674657374EC
:10541000206661696C6564202000416C6C20636FBC
:105420007272656374202020202020004368656329
:105430006B696E672073656E736F727320004368CB
:1054400065636B696E672062656420202020200000
:10545000436865636B696E67205A206178697320C1
:105460002000436865636B696E6720592061786925
:1054700073202000436865636B696E672058206164
:10548000786973202000436865636B696E672068E4
:105490006F74656E64202000436865636B696E6796
:1054A00020656E6473746F7073004572726F722042
:1054B0002D20737461746963206D656D6F7279203E
:1054C000686173206265656E206F766572777269B8
:1054D0007474656E00436172642072656D6F7665E9
:1054E00064004361726420696E7365727465640060
:1054F0001000C90210012C014001220170011801A5
:10550000B0010E01F00104015002FA00B002F000F7
:105510003003E600D003DC009004D2007005C80020
:10552000A006BE000008B400B009AA00D00BA0007D
:10553000600E960060118C00001582002019780022
:10554000C01D6E00A0226400B0275A00902C5000AD
:1055500000314600E0343C0010383200903A280018
:10556000603C1E00A03D1400803E0A00203F000069
:105570004572723A204D415854454D50003A2045ED
:105580007874727564657220737769746368656492
:10559000206F66662E204D415854454D5020747240
:1055A000696767657265642021004572723A204D13
:1055B000415854454D50204245440054656D706536
:1055C00072617475726520686561746564206265D6
:1055D00064207377697463686564206F66662E2043
:1055E0004D415854454D5020747269676765726526
:1055F000642021004572723A204D494E54454D5069
:10560000204245440054656D706572617475726521
:1056100020686561746564206265642073776974CD
:1056200063686564206F66662E204D494E54454D73
:105630005020747269676765726564202100457245
:10564000723A204D494E54454D50003A20457874E9
:105650007275646572207377697463686564206F1E
:1056600066662E204D494E54454D50207472696730
:105670006765726564202100746D63323133305F79
:10568000686F6D655F656E74657228617865735FBC
:105690006D61736B3D307825303278290A00746D66
:1056A00063323133305F686F6D655F657869742090
:1056B000746D63323133305F73675F686F6D696E2D
:1056C000675F617865735F6D61736B3D307825301E
:1056D00032780A004D3234004D3233202573006198
:1056E00075746F25692E670022206661696C656498
:1056F0003A204275666665722066756C6C210045BD
:105700006E717565696E6720746F207468652066B8
:10571000726F6E743A2022004572726F723A0022E4
:1057200000456E717565696E6720746F20746865D9
:105730002066726F6E743A2022006563686F3A00CB
:10574000454550524F4D204572726F720066736529
:105750006E736F725F726573746F72655F7072697A
:105760006E745F616E645F636F6E74696E75650AF7
:105770000044495341424C45440A00454E41424C85
:105780004544004653656E736F722025530A0050DE
:105790004154393132355F696E69743A25686875EC
:1057A0000A00504154393132355F696E69743A25C7
:1057B0006868750A0050415439313235206E6F7473
:1057C00020726573706F6E64696E67202825642986
:1057D000210A006673656E736F725F6175746F6C1A
:1057E0006F61645F636865636B5F7374617274207B
:1057F0002D206175746F6C6F616420454E41424C81
:1058000045440A006673656E736F725F6175746FED
:105810006C6F61645F636865636B5F73746F702046
:105820002D206175746F6C6F61642044495341424F
:105830004C45440A00504154393132355F5245538A
:105840005F593D256868750A005041543931323539
:105850005F5245535F583D256868750A00555341AE
:105860005254322072782046756C6C2121210A0036
:1058700053657474696E67732053746F7265640046
:1058800053746F7265642073657474696E677320F6
:105890007265747269657665640048617264636FED
:1058A0006465642044656661756C74205365747426
:1058B000696E6773204C6F61646564005632000046
:1058C0000000C8420000C8420000C84300804F44A6
:1058D0000000484300004843000040410000F042FF
:1058E000E8030000E8030000C8000000881300007F
:1058F00000409C4400409C44000000000000000068
:10590000204E00000000204100002041CDCCCC3EC4
:105910000000204000000000000000000000000027
:10592000CDCCCC3E3D0A8141FF08433EB099AB430C
:105930008F42FC42E65A343F4C62B0450000000002
:105940000040400000344200000000000000000061
:10595000000041000000E03F0000C8420000C842D3
:10596000000040410000F042C0030000C0030000FE
:10597000C8000000881300001F1F1F1F1F1F1F1FCC
:105980002E002E004E6F7720667265736820666960
:105990006C653A20004E6F7720646F696E672066F1
:1059A000696C653A20002220706F730022207061BC
:1059B00072656E743A2200535542524F5554494E07
:1059C000452043414C4C207461726765743A220053
:1059D000747279696E6720746F2063616C6C2073D8
:1059E00075622D67636F64652066696C65732077E7
:1059F00069746820746F6F206D616E79206C6576B4
:105A0000656C732E204D4158206C6576656C20695D
:105A1000733A00536F7274696E672066696C6573C0
:105A200000536F6D652066696C65732077696C6CD7
:105A3000206E6F7420626520736F727465642E200F
:105A40004D61782E204E6F2E206F662066696C6542
:105A50007320696E203120666F6C64657220666FFA
:105A60007220736F7274696E6720697320313030F1
:105A70002E0057726974696E6720746F2066696CB6
:105A8000653A200046696C652073656C65637465D2
:105A900064002053697A653A200046696C65206F7E
:105AA00070656E65643A20002563252E3132533AC5
:105AB0002573252B30362E31660020202020202013
:105AC0002020202020202020202020202020003ED8
:105AD000003E0020003E003E0020004E6F74207308
